S00C0000686F6D652E737265636F
S11300000C9468000C94B50F0C94DC0F0C949000C5
S11300100C9490000C9490000C9490000C9490001C
S11300200C9490000C9490000C9490000C9490000C
S11300300C9490000C9490000C9490000C949000FC
S11300400C9403100C9490000C949B0D0C94CD0D07
S11300500C9490000C9490000C9490000C949000DC
S11300600C94DB190C949000C908A908C908B208BB
S1130070C908B908BE08C30800000008000201004E
S1130080000304070000000000000000010204084F
S113009010204080010204081020010204081020EE
S11300A0040404040404040402020202020203031A
S11300B00303030300000000250028002B000000B8
S11300C00000240027002A003B08FD0DE612011859
S11300D011241FBECFEFD8E0DEBFCDBF12E0A0E0F9
S11300E0B1E0E0E7F9E302C005900D92A835B1074D
S11300F0D9F724E0A8E5B2E001C01D92A432B2070A
S1130100E1F710E0C8E6D0E004C02197FE010E94A8
S11301105E1BC436D107C9F70E942B0E0C94B61C83
S11301200C940000089508950F931F93CF93DF93C9
S11301308C01EB0188E2FB0111928A95E9F74BE00F
S113014050E06AE071E0CE010E94A71C1B8681E0AA
S113015090E0A0E0B0E08C879D87AE87BF87F80170
S113016085819681A781B085888B998BAA8BBB8B5F
S113017085E090E0A0E0B0E08C8B9D8BAE8BBF8BD4
S11301801CA21DA21EA21FA280E090EEABEAB7E45F
S1130190888F998FAA8FBB8F1C8E1D8E1E8E1F8EEB
S11301A080E090E0A0E8BFE388A399A3AAA3BBA33F
S11301B0DF91CF911F910F91089562E171E089EB76
S11301C092E00C94880E80E00E94A30F6DE171E030
S11301D089EB92E00C94880E0C943A0E97E09A9571
S11301E0F1F708950895309BFECFA89408950895DB
S11301F0399838984198409888279927319B0895D1
S1130200309B089581E0089581E00895309BEBDFF1
S1130210399AE4DF1BD0089581E00895389ADEDF2F
S11302203998DCDF3898DADF309BDDDF399AD6DFA6
S11302300DD0089581E00895389A399ACFDF38981F
S1130240CDDF309BD0DF3998C9DF08950894881F2B
S113025001C0880FB9F0389A00000000000018F4BB
S11302600000399802C0399A00C0B8DF3898A894C1
S1130270000000000000309BB6DF12F4882712C093
S1130280ADDFE7CF389A000000003998A7DF99273F
S113029088273898A8940000309BA5DF7AF3319B17
S11302A081E09CDF00000000389A089581E0089501
S11302B071E0389A39980000000000008FDF389808
S11302C08DDFA894000000000000309B8CDFB2F0AA
S11302D0889431990894771F60F7389A803011F028
S11302E0399801C0399A00000000000077DF38987F
S11302F0A89400000000309B76DF70DF000000004F
S1130300389A872F9927089580E208954F925F9233
S11303106F927F928F929F92AF92BF92CF92DF9211
S1130320EF92FF920F931F93CF93DF93DC018B0126
S1130330EA016F3F7F4F09F496C04F3F5F4F09F4C6
S113034092C01396EC911397E150E53058F484E091
S1130350E89FF0011124E552FE4F60817181828192
S1130360938104C060E070E088EC92E414962C91D0
S1130370203169F018F42223C9F013C0203261F04F
S1130380203379F420E030E545EF55E413C020E054
S113039030E048EC51E40EC020E030E844ED53E492
S11303A009C020E030E040E85FE304C02AE037ED14
S11303B043E85FE30E94080C20E030EC47E354E498
S11303C00E94B00A6B017C01B80180E090E00E94B9
S11303D0510B2B013C01BE0180E090E00E94510BC7
S11303E04B015C0125E83BEE41ED5FE30E94080C04
S11303F09B01AC01C301B2010E943E0AA701960110
S11304000E94B00A162FD72FC82F092F2DE33AE0E8
S113041047E15FE3C301B2010E94080C2B013C01D8
S113042026EF38E24CE55FE3C501B4010E94080CF5
S11304309B01AC01C301B2010E943E0AA7019601CF
S11304400E94B00A6B017C019B01AC01612F7D2FDE
S11304508C2F902F0E94030C18164CF01C2DDD2DB0
S1130460CE2D0F2D04C010E0D0E0C0E000E0612FDD
S11304707D2F8C2F902FDF91CF911F910F91FF90A3
S1130480EF90DF90CF90BF90AF909F908F907F9030
S11304906F905F904F900895CF93C62F82E50E948E
S11304A006018C2F806A0E94260183E50E940E01BA
S11304B081E00E945801C82F0E941C018C2FCF910B
S11304C008951F93CF93DF93C62F82E50E94060100
S11304D08C2F0E94260183E50E940E0180E00E9479
S11304E05801182F81E00E945801C82FD0E00E94C3
S11304F01C019C2F8827812BDF91CF911F91089598
S1130500CF93DF93D62FC42F82E50E9406018D2F4F
S11305100E9426018C2F0E942601DF91CF910C941A
S11305201C011F93CF93DF93EC01162F8985882339
S113053081F0CE010E94D0021C834B81412B61EAE1
S1130540CE010E948002CE01DF91CF911F910C94C5
S1130550E502CE010E94B2028111EBCFDF91CF916F
S11305601F910895CF93DF93EC010E94F80062E19C
S1130570CE010E944C02803579F481E089876B8139
S1130580CE010E94FA026C81CE010E949102CE013A
S11305900E94E50281E001C080E0DF91CF910895DF
S11305A0CF93DF93EC018985882339F043E160EA36
S11305B0CE01DF91CF910C948002CE010E94B20251
S11305C08111F4CFDF91CF910895CF93DF93EC01A4
S11305D08985882339F040E060EACE01DF91CF912C
S11305E00C948002CE010E94B2028111F4CFDF91FB
S11305F0CF9108951F93CF93DF93EC01162F898534
S1130600882381F0CE010E94D0021B834C81412BB0
S113061061EACE010E948002CE01DF91CF911F9149
S11306200C94E502CE010E94B2028111EBCFDF915E
S1130630CF911F9108958F929F92AF92BF92CF92C4
S1130640DF92EF92FF92CF93DF93EC0189858823A9
S113065029F0CE010E94D002F12C09C0CE010E94E3
S1130660B2028111F6CF60E070E090E025C08B818A
S11306708F1540F068E770E080E090E00E947E1003
S1130680F394F5CF66EBCE010E9461026C01E12C7C
S1130690F12C56019924882464EBCE010E94610256
S11306A06C01E12CF12CC828D928EA28FB28CE01BA
S11306B00E94E502B601C701DF91CF91FF90EF9050
S11306C0DF90CF90BF90AF909F908F900895CF927E
S11306D0DF92EF92FF920F931F93CF93DF938C01DE
S11306E0EB010E941B03C8010E941B036B017C01E8
S11306F084E2FE0111928A95E9F784E290E0A0E099
S1130700B0E088839983AA83BB83F80185819681AD
S1130710A781B0858C839D83AE83BF8385E090E001
S1130720A0E0B0E088879987AA87BB870E944D1014
S1130730688B798B8A8B9B8BA70166277727B601F9
S1130740C8010E9486016C8B7D8B8E8B9F8BDF9101
S1130750CF911F910F91FF90EF90DF90CF9008956C
S113076060E070E081E792E00E94E51890E09093E9
S11307705F0280935E02089540915E0260E070E043
S113078081E792E00C949A184091610261E070E074
S113079081E792E00C949A18E3E6F2E08AE0808321
S11307A01182128281E0848385838FE28683CF0164
S11307B00E940B169B01AC0160E08FE593E00E9460
S11307C02D1440E060E08FE593E00C94CA140F937D
S11307D01F93CF93DF93CAE5D2E00EE512E049916F
S11307E060915E0270915F0281E792E00E949A1824
S11307F060915E0270915F026F5F7F4F70935F0242
S113080060935E020C171D0751F780918A02909144
S11308108B02482F809358029093590281E792E00B
S11308200E949A1860915E0270915F026F5F7F4F21
S113083070935F0260935E024091590281E792E0F7
S11308400E949A1860915E0270915F026F5F7F4F01
S113085070935F0260935E0280918C0290918D028E
S1130860482F809358029093590281E792E00E94A6
S11308709A1860915E0270915F026F5F7F4F709370
S11308805F0260935E024091590281E792E00E9408
S11308909A1860915E0270915F026F5F7F4F709350
S11308A05F0260935E0280918E0290918F02482FC6
S11308B0809358029093590281E792E00E949A181B
S11308C060915E0270915F026F5F7F4F70935F0271
S11308D060935E024091590281E792E00E949A1867
S11308E060915E0270915F026F5F7F4F70935F0251
S11308F060935E028091900290919102482F8093C0
S113090058029093590281E792E00E949A186091EC
S11309105E0270915F026F5F7F4F70935F0260931E
S11309205E024091590281E792E00E949A18609118
S11309305E0270915F026F5F7F4F70935F026093FE
S11309405E028091840290918502482F8093580220
S11309509093590281E792E00E949A1860915E0296
S113096070915F026F5F7F4F70935F0260935E02CE
S11309704091590281E792E00E949A1860915E02C8
S113098070915F026F5F7F4F70935F0260935E02AE
S11309908091860290918702482F80935802909309
S11309A0590281E792E00E949A1860915E02709168
S11309B05F026F5F7F4F70935F0260935E024091AE
S11309C0590281E792E00E949A1880915E02909108
S11309D05F02019690935F0280935E02DF91CF9154
S11309E01F910F910895CF92DF92EF92FF920F9390
S11309F01F93CF93DF93CDB7DEB7A4970FB6F894C8
S1130A00DEBF0FBECDBFBE016F5F7F4F88E792E0B0
S1130A100E946703CD88DE88EF88F88C01E020E02F
S1130A2030E0A901C701B6010E94AB0A811100E0C0
S1130A3011E02BEF3FEF4FE75FE4C701B6010E94DF
S1130A40030C18160CF010E0102B51F42BEF3FEFB1
S1130A504FE75FECC701B6010E94AB0A87FF0FC0E6
S1130A6080E197E2A0E0B0E080935A0290935B02A9
S1130A70A0935C02B0935D020E94F30410C0C7010E
S1130A80B6010E94220B60935A0270935B0280931A
S1130A905C0290935D0288E792E00E94E502A496CE
S1130AA00FB6F894DEBF0FBECDBFDF91CF911F917B
S1130AB00F91FF90EF90DF90CF90089582E892E03D
S1130AC00E942A0A82E892E00E943B0982E892E0AE
S1130AD00C947109CF93DF936DE271E089EB92E09E
S1130AE00E94880E8AE692E00E94A4136FE271E0ED
S1130AF089EB92E00E947B0ECAE6D2E04AE050E025
S1130B006A8189EB92E00E94F00E6AE389EB92E03D
S1130B100E947D0E4AE050E0698189EB92E00E94D8
S1130B20F00E6AE389EB92E00E947D0E4AE050E009
S1130B30688189EB92E00E94F00E60E289EB92E01A
S1130B400E947D0E6E8170E06E54784F4AE050E052
S1130B5089EB92E00E947B0F6DE289EB92E00E94A8
S1130B607D0E4AE050E06D8189EB92E00E94F00E28
S1130B706DE289EB92E00E947D0E4AE050E06C81C8
S1130B8089EB92E00E94F00E61E371E089EB92E060
S1130B90DF91CF910C947B0E87E090E090935F02FD
S1130BA080935E020E94BC030E946A0564E371E0C4
S1130BB089EB92E00C94880ECF93DF930E946A0530
S1130BC065E471E089EB92E00E94880E40E050E019
S1130BD06DED70E081E00E94830FCAE7D0E0888168
S1130BE08093600264E670E080E090E00E947E10F2
S1130BF083B7817F846083BF83B7816083BF789428
S1130C0083B7816083BF889583B78E7F83BF83B7A3
S1130C108E7F83BF809160028883DF91CF91089596
S1130C20CF93DF930E946A0566E571E089EB92E059
S1130C300E94880E0E94CC0340E050E06DED70E00D
S1130C4081E00E94830F40E050E063EE70E080E0BA
S1130C500E94830FCAE7D0E088818093600264E633
S1130C6070E080E090E00E947E1083B7817F846012
S1130C7083BF83B7816083BF789483B7816083BF68
S1130C80889583B78E7F83BF83B78E7F83BF809120
S1130C9060028883DF91CF91089560E082E00E9432
S1130CA01E1160E083E00E941E1160E080E00E945B
S1130CB01E1160E081E00E941E1180E693E00E9414
S1130CC06B1781E792E00E9419180E94B00388E72D
S1130CD092E00E94E50226E040E051EE60E070E020
S1130CE089EB92E00E943B0DEAE6F2E01282118267
S1130CF0108281E0848385838FE28683CF010E9402
S1130D00EA120E94CC030E946A056EE671E089EB48
S1130D1092E00E947B0E0C941006CF93DF930E9406
S1130D206A0561E871E089EB92E00E94880E0E94F6
S1130D30F3040E945E056DE272E089EB92E00E948A
S1130D40880E6CE871E089EB92E00E947B0E409182
S1130D505A0250915B0260915C0270915D022AE03C
S1130D6030E089EB92E00E94210F6DE272E089EBA2
S1130D7092E00E94880E62E971E089EB92E00E94A1
S1130D807B0EC2E8D2E0688579854AE050E089EBC1
S1130D9092E00E940F0F68E971E089EB92E00E94F3
S1130DA07B0E6A857B854AE050E089EB92E00E94E5
S1130DB00F0F6EE971E089EB92E00E947B0E6C8567
S1130DC07D854AE050E089EB92E00E940F0F65EACE
S1130DD071E089EB92E00E947B0E6E857F854AE08C
S1130DE050E089EB92E00E940F0F6DEA71E089EB0D
S1130DF092E00E947B0E6A817B814AE050E089EB9D
S1130E0092E00E940F0F64EB71E089EB92E00E9484
S1130E107B0E6C817D814AE050E089EB92E0DF91AA
S1130E20CF910C940F0FCF92DF92EF92FF920F931A
S1130E301F93CF93DF930E946A056BEB71E089EBFC
S1130E4092E00E94880E6DE272E089EB92E00E94CB
S1130E50880EC7E0D0E08EE5E82E82E0F82E80917F
S1130E605E0290915F02C817D90708F0FBC00AE53B
S1130E7012E0CE018A5592406C01B601600F711FD9
S1130E8081E792E00E94E518F80181938F01EE1644
S1130E90FF0699F740915A0250915B0260915C02FF
S1130EA070915D022AE030E089EB92E00E94E30E4B
S1130EB06DE271E089EB92E00E947B0EBE016C5FF3
S1130EC07F4F81E792E00E94E51880935802BE01AB
S1130ED06B5F7F4F81E792E00E94E518809359028F
S1130EE060915802709159024AE050E089EB92E017
S1130EF00E94090F6DE271E089EB92E00E947B0E83
S1130F00BE016A5F7F4F81E792E00E94E5188093FB
S1130F105802BE01695F7F4F81E792E00E94E518A5
S1130F208093590260915802709159024AE050E04E
S1130F3089EB92E00E94090F6DE271E089EB92E087
S1130F400E947B0EBE01685F7F4F81E792E00E94A2
S1130F50E51880935802BE01675F7F4F81E792E0F6
S1130F600E94E518809359026091580270915902C9
S1130F704AE050E089EB92E00E94090F6DE271E0D3
S1130F8089EB92E00E947B0EBE01665F7F4F81E792
S1130F9092E00E94E51880935802BE01655F7F4F7E
S1130FA081E792E00E94E51880935902609158020B
S1130FB0709159024AE050E089EB92E00E94090FD7
S1130FC06DE271E089EB92E00E947B0EBE01645FEA
S1130FD07F4F81E792E00E94E51880935802BE019A
S1130FE0635F7F4F81E792E00E94E5188093590286
S1130FF060915802709159024AE050E089EB92E006
S11310000E94090F6DE271E089EB92E00E947B0E71
S1131010BE01625F7F4F81E792E00E94E5188093F2
S11310205802BE01615F7F4F81E792E00E94E5189C
S113103080935902609660915802709159024AE077
S113104050E089EB92E00E94090F6DE271E089EBB8
S113105092E00E947B0E6DE272E089EB92E00E94C6
S1131060880EFDCEDF91CF911F910F91FF90EF90ED
S1131070DF90CF90089582E892E00E94CD08E8E7DF
S1131080F2E083EF91E0918380831186138280E103
S113109084838FE19AE0A0E0B0E085839683A78300
S11310A0B08740E050E260E581E792E00C940518D7
S11310B089EB92E00E94750C892BD1F308950E946C
S11310C06A056CEC71E089EB92E00E947B0E0E9451
S11310D0580889EB92E00E948F0C809361024AE0E9
S11310E050E0682F89EB92E00C94F70ECF93DF93D6
S11310F0CAE0D0E089EB92E00E94750C181619063C
S11311005CF489EB92E00E948F0C61E070E080E077
S113111090E00E947E10EECF61E070E080E090E00D
S11311200E947E10219731F7DF91CF9108950E949C
S1131130580889EB92E00E948F0C8093620290E041
S1131140FC01F097E830F10520F5EC5CFF4F0C94BE
S11311505E1B0E9476080E948D060E94E7030E948F
S1131160BC0319C00E9476080E945F080E94C40351
S113117012C00E9476080E9413070DC00E947608D0
S11311800E94CC0508C00E9476080E94CC030C94EF
S113119010060E9476080C94DC05FC011082118272
S11311A013AA12AA40E06FEFC4960C949011EF9228
S11311B0FF920F931F93CF93DF93EC017C0184E3A1
S11311C0E80EF11C8AA99BA916E0189FF001199F4B
S11311D0F00D1124E350FE4F6081C7010E941A12E2
S11311E08AA99BA9189FF001199FF00D1124E350BF
S11311F0FE4F6181C7010E9454122AA93BA9129F84
S1131200C001139F900D11248C0103501E4FF8014F
S1131210818190E09D838C8360E071E0681B790B91
S113122080E090E00E94510B2AE939E949E150E459
S11312300E94080C0E94220B7F836E83F801808138
S1131240813059F038F0823059F0833069F48CE3FE
S113125090E008C081E090E005C084E090E002C026
S113126080E190E09B838A83DF91CF911F910F915E
S1131270FF90EF9008950F931F93CF93DF9300D0C7
S11312801F92CDB7DEB78C01FC0182A993A926E099
S1131290289FF001299FF00D1124E350FE4F408157
S11312A06181CE0101960E94901189819A81AB815E
S11312B0F80184AB95ABA6ABC801C4960E94321268
S11312C0F8018083882319F0C8010E94D708F80127
S11312D080810F900F900F90DF91CF911F910F910C
S11312E008956F927F928F929F92AF92BF92CF9206
S11312F0DF92EF92FF920F931F93CF93DF93EC0152
S11313004C018EE0880E911C5E018CE0A80EB11C8D
S11313106E018AE0C80ED11C7E0188E0E80EF11C43
S11313203E0184E3680E711C84019501A601B70196
S1131330C3010E946C128AA99BA926E0289FF00190
S1131340299FF00D1124E350FE4F448155812E85D1
S11313503F854115510529F04217530710F40196B2
S113136011C046E0489FF001499FF00D1124E3505D
S1131370FE4F428153814115510551F12417350720
S113138038F501979BAB8AABCE010E94D7088C81BC
S11313909D8160E071E0681B790B80E090E00E9421
S11313A0510B2AE939E949E150E40E94080C20E094
S11313B030E040E850E40E94080C0E94220B0E9496
S11313C07E1084019501A601B701C3010E946C122D
S11313D0288539858A859B85820F931F2C853D85B9
S11313E0820F931F2E853F852817390728F4821B07
S11313F0930B9695879502C080E090E0998B888B3B
S1131400DF91CF911F910F91FF90EF90DF90CF90DC
S1131410BF90AF909F908F907F906F900895CF93DF
S1131420DF93C82FD42F69E270E080E693E00E9436
S11314307F176C2F606880E693E00E942C176D2F55
S113144080E693E00E942C1780E693E0DF91CF9131
S11314500C94FE1741E050E060E070E080E00E94F0
S11314600F0A63E070E080E090E00E947E1043E0A9
S113147050E060E070E080E00C940F0A5058BB2705
S1131480AA270E94560A0C94C90B0E94BB0B38F081
S11314900E94C20B20F039F49F3F19F426F40C94F7
S11314A0B80B0EF4E095E7FB0C94B20BE92F0E9405
S11314B0DA0B58F3BA17620773078407950720F00D
S11314C079F4A6F50C94FC0B0EF4E0950B2EBA2FD0
S11314D0A02D0B01B90190010C01CA01A001112436
S11314E0FF27591B99F0593F50F4503E68F11A16E2
S11314F0F040A22F232F342F4427585FF3CF469573
S113150037952795A795F0405395C9F77EF41F1694
S1131510BA0B620B730B840BBAF09150A1F0FF0F5E
S1131520BB1F661F771F881FC2F70EC0BA0F621F4A
S1131530731F841F48F4879577956795B795F7953A
S11315409E3F08F0B0CF9395880F08F09927EE0FCF
S11315509795879508950E948E0B08F481E008956D
S11315600E94C40A0C94C90B0E94C20B58F00E943A
S1131570BB0B40F029F45F3F29F00C94B20B5111DE
S11315800C94FD0B0C94B80B0E94DA0B68F39923AE
S1131590B1F3552391F3951B550BBB27AA2762176B
S11315A07307840738F09F5F5F4F220F331F441F78
S11315B0AA1FA9F335D00E2E3AF0E0E832D09150AC
S11315C05040E695001CCAF72BD0FE2F29D0660F99
S11315D0771F881FBB1F261737074807AB07B0E8DC
S11315E009F0BB0B802DBF01FF2793585F4F3AF0E2
S11315F09E3F510578F00C94B20B0C94FD0B5F3FA9
S1131600E4F3983ED4F3869577956795B795F79567
S11316109F5FC9F7880F911D9695879597F908954F
S1131620E1E0660F771F881FBB1F621773078407EB
S1131630BA0720F0621B730B840BBA0BEE1F88F7FA
S1131640E09508950E94E20B88F09F5798F0B92F17
S11316509927B751B0F0E1F0660F771F881F991FE3
S11316601AF0BA95C9F714C0B13091F00E94FC0B7E
S1131670B1E008950C94FC0B672F782F8827B85F8E
S113168039F0B93FCCF3869577956795B395D9F73B
S11316903EF490958095709561957F4F8F4F9F4F45
S11316A00895E89409C097FB3EF490958095709551
S11316B061957F4F8F4F9F4F9923A9F0F92F96E99A
S11316C0BB279395F695879577956795B795F1110F
S11316D0F8CFFAF4BB0F11F460FF1BC06F5F7F4FAC
S11316E08F4F9F4F16C0882311F096E911C07723BE
S11316F021F09EE8872F762F05C0662371F096E8C7
S1131700862F70E060E02AF09A95660F771F881F95
S1131710DAF7880F9695879597F90895990F000839
S1131720550FAA0BE0E8FEEF16161706E807F907AF
S1131730C0F012161306E407F50798F0621B730B4A
S1131740840B950B39F40A2661F0232B242B252BCB
S113175021F408950A2609F4A140A6958FEF811D6E
S1131760811D089597F99F6780E870E060E008950F
S11317709FEF80EC089500240A94161617061806A5
S11317800906089500240A94121613061406050681
S11317900895092E0394000C11F4882352F0BB0F12
S11317A040F4BF2B11F460FF04C06F5F7F4F8F4F75
S11317B09F4F089557FD9058440F551F59F05F3FB0
S11317C071F04795880F97FB991F61F09F3F79F05F
S11317D087950895121613061406551FF2CF4695E1
S11317E0F1DF08C0161617061806991FF1CF869563
S11317F07105610508940895E894BB276627772747
S1131800CB0197F908950E948E0B08F48FEF089589
S11318100E941B0C0C94C90B0E94BB0B38F00E9455
S1131820C20B20F0952311F00C94B20B0C94B80B5E
S113183011240C94FD0B0E94DA0B70F3959FC1F3F5
S1131840950F50E0551F629FF001729FBB27F00D6A
S1131850B11D639FAA27F00DB11DAA1F649F6627BF
S1131860B00DA11D661F829F2227B00DA11D621F0E
S1131870739FB00DA11D621F839FA00D611D221FC8
S1131880749F3327A00D611D231F849F600D211DAC
S1131890822F762F6A2F11249F5750409AF0F1F02F
S11318A088234AF0EE0FFF1FBB1F661F771F881F98
S11318B091505040A9F79E3F510580F00C94B20B13
S11318C00C94FD0B5F3FE4F3983ED4F38695779533
S11318D06795B795F795E7959F5FC1F7FE2B880F3E
S11318E0911D9695879597F90895FC01918D228D08
S11318F0892F90E0805C9F4F821B91098F739927F9
S11319000895FC01918D828D981731F0828DE80F36
S1131910F11D858D90E008958FEF9FEF0895FC01F0
S1131920918D828D981761F0828DDF01A80FB11D12
S11319305D968C91928D9F5F9F73928F90E0089536
S11319408FEF9FEF089583EF9DE0892B49F080E0AE
S113195090E0892B29F00E94F30D81110C94000072
S11319600895FC01848DDF01A80FB11DA35ABF4F58
S11319702C91848D90E001968F739927848FA6898A
S1131980B7892C93A089B1898C9180648C93938DB1
S1131990848D981306C00288F389E02D80818F7DA1
S11319A080830895EF92FF920F931F93CF93DF9359
S11319B0EC0181E0888F9B8D8C8D981305C0E8899C
S11319C0F989808185FD24C0F62E0B8D10E00F5F10
S11319D01F4F0F731127E02E8C8DE8120CC00FB629
S11319E007FCFACFE889F989808185FFF5CFCE011C
S11319F00E94B10CF1CF8B8DFE01E80FF11DE35A6B
S1131A00FF4FF0820B8FEA89FB898081806207C0D7
S1131A10EE89FF896083E889F98980818064808305
S1131A2081E090E0DF91CF911F910F91FF90EF90B3
S1131A300895CF93DF93EC01888D8823C9F0EA8958
S1131A40FB89808185FD05C0A889B9898C9186FDB3
S1131A500FC00FB607FCF5CF808185FFF2CFA889B0
S1131A60B9898C9185FFEDCFCE010E94B10CE7CFEF
S1131A70DF91CF910895CF92DF92EF92FF921F935F
S1131A80CF93DF93EC016A017B01122F60E874E8C5
S1131A908EE190E0A70196010E943C1BDA01C90186
S1131AA00197A109B109B695A795979587959C01CA
S1131AB0E889F98982E08083211580E13807A8F05C
S1131AC0E889F989108260E472E48FE090E0A7016C
S1131AD096010E943C1BDA01C9010197A109B109D1
S1131AE0B695A795979587959C01EC85FD853083E0
S1131AF0EE85FF852083188EEC89FD891083EA89A1
S1131B00FB89808180618083EA89FB898081886088
S1131B108083EA89FB89808180688083EA89FB89E4
S1131B2080818F7D8083DF91CF911F91FF90EF9013
S1131B30DF90CF9008951F920F920FB60F92112449
S1131B402F938F939F93EF93FF93E091C902F091AA
S1131B50CA028081E091CF02F091D00282FD12C0CE
S1131B6090818091D2028F5F8F732091D30282176C
S1131B7051F0E091D202F0E0E754FD4F958F80934D
S1131B80D20201C08081FF91EF919F918F912F919B
S1131B900F900FBE0F901F9018951F920F920FB6C3
S1131BA00F9211242F933F934F935F936F937F93DF
S1131BB08F939F93AF93BF93EF93FF9389EB92E03F
S1131BC00E94B10CFF91EF91BF91AF919F918F91C2
S1131BD07F916F915F914F913F912F910F900FBE25
S1131BE00F901F90189589EB92E00E94750C21E0EC
S1131BF0892B09F420E0822F0895E9EBF2E01382A7
S1131C00128288EE93E0A0E0B0E084839583A683FB
S1131C10B7838FE192E09183808385EC90E0958790
S1131C20848784EC90E09787868780EC90E0918BA2
S1131C30808B81EC90E0938B828B82EC90E0958B8F
S1131C40848B86EC90E0978B868B118E128E138E8C
S1131C50148E089508950E94BA100E942A0E0E94BC
S1131C604D06C3EADCE00E9497082097E1F30E9446
S1131C70A30CF9CF0C941E1CCF92DF92EF92FF922B
S1131C800F931F93CF93DF936C017A018B01C0E014
S1131C90D0E0CE15DF0581F0D8016D918D01D6011C
S1131CA0ED91FC910190F081E02DC6010995892BFD
S1131CB011F02196EECF7E01C701DF91CF911F91E4
S1131CC00F91FF90EF90DF90CF900895611571050B
S1131CD079F0FB0101900020E9F73197AF01461B31
S1131CE0570BDC01ED91FC910280F381E02D099406
S1131CF080E090E008950C94660EDC01ED91FC9177
S1131D000190F081E02D09946BE272E00C94660E70
S1131D100F931F93CF93DF93EC010E94660E8C0107
S1131D20CE010E94840E800F911FDF91CF911F91ED
S1131D300F9108958F929F92AF92BF92EF92FF926C
S1131D400F931F93CF93DF93CDB7DEB7A1970FB651
S1131D50F894DEBF0FBECDBF7C01FA01CB0119A2FE
S1131D60223008F42AE08E010F5D1F4F822E912C41
S1131D70A12CB12CBF01A50194010E943C1BF901C7
S1131D80CA01015011096A3010F4605D01C0695C38
S1131D90D8016C93232B242B252B61F7B801C701A1
S1131DA00E94660EA1960FB6F894DEBF0FBECDBF9B
S1131DB0DF91CF911F910F91FF90EF90BF90AF9063
S1131DC09F908F9008952115310541F4DC01ED9128
S1131DD0FC910190F081E02D642F09940C949A0EEB
S1131DE09A01462F50E060E070E00C94E30E0F93EC
S1131DF01F93CF93DF93EC010E94F00E8C01CE0170
S1131E000E94840E800F911FDF91CF911F910F913B
S1131E1008959A01AB0160E070E00C94E30E0F9317
S1131E201F93CF93DF93EC010E94090F8C01CE0125
S1131E300E94840E800F911FDF91CF911F910F910B
S1131E4008950F931F93CF93DF93EC010E94E30E49
S1131E508C01CE010E94840E800F911FDF91CF91DF
S1131E601F910F910895CF92DF92EF92FF920F93FB
S1131E701F93CF93DF932115310581F4DC01ED919C
S1131E80FC910190F081E02D642FDF91CF911F919F
S1131E900F91FF90EF90DF90CF9009942A30310595
S1131EA001F577FF1DC06A017B01EC016DE20E9420
S1131EB07D0E8C0144275527BA014C195D096E0922
S1131EC07F092AE0CE010E949A0E800F911FDF91B4
S1131ED0CF911F910F91FF90EF90DF90CF900895D5
S1131EE02AE0DF91CF911F910F91FF90EF90DF9047
S1131EF0CF900C949A0E9A01AB01770F660B770B77
S1131F000C94330F08958230E8F4E82FF0E0EE0FDC
S1131F10FF1FEA5FFE4F71836083813041F080913F
S1131F2069008C7F482B40936900E89A089580915A
S1131F306900837F440F551F440F551F482B40935E
S1131F406900E99A0895823078F4813011F0E898B4
S1131F5001C0E998E82FF0E0EE0FFF1FEA5FFE4FA3
S1131F6082E89FE09183808308951F920F920FB6B9
S1131F700F9211242F933F934F935F936F937F930B
S1131F808F939F93AF93BF93EF93FF93E0910601D9
S1131F90F09107010995FF91EF91BF91AF919F9146
S1131FA08F917F916F915F914F913F912F910F90FE
S1131FB00FBE0F901F9018951F920F920FB60F929D
S1131FC011242F933F934F935F936F937F938F933A
S1131FD09F93AF93BF93EF93FF93E0910801F09128
S1131FE009010995FF91EF91BF91AF919F918F9155
S1131FF07F916F915F914F913F912F910F900FBE01
S11320000F901F9018951F920F920FB60F921124E4
S11320102F933F938F939F93AF93BF9380915703D5
S113202090915803A0915903B0915A0330915603EB
S113203026E0230F2D3720F40296A11DB11D05C003
S113204029E8230F0396A11DB11D20935603809305
S1132050570390935803A0935903B0935A03809164
S11320605B0390915C03A0915D03B0915E030196C4
S1132070A11DB11D80935B0390935C03A0935D034A
S1132080B0935E03BF91AF919F918F913F912F9138
S11320900F900FBE0F901F9018952FB7F894609172
S11320A05703709158038091590390915A032FBF9D
S11320B008953FB7F89480915B0390915C03A091DD
S11320C05D03B0915E0326B5A89B05C02F3F19F0B0
S11320D00196A11DB11D3FBFBA2FA92F982F8827A4
S11320E0820F911DA11DB11DBC01CD0143E0660FFE
S11320F0771F881F991F4A95D1F708958F929F9251
S1132100AF92BF92CF92DF92EF92FF926B017C016C
S11321100E9459104B015C01C114D104E104F10483
S113212001F10E94F5180E945910DC01CB018819B5
S11321309909AA09BB09883E9340A105B10560F33A
S113214021E0C21AD108E108F10888EE880E83E084
S1132150981EA11CB11CC114D104E104F10419F7A7
S1132160DBCFFF90EF90DF90CF90BF90AF909F9028
S11321708F900895789484B5826084BD84B581601D
S113218084BD85B5826085BD85B5816085BDEEE67B
S1132190F0E0808181608083E1E8F0E0108280815A
S11321A082608083808181608083E0E8F0E08081C8
S11321B081608083E1EBF0E0808184608083E0EBE8
S11321C0F0E0808181608083EAE7F0E080818460D0
S11321D0808380818260808380818E7F8083808100
S11321E0806880831092C1000895833081F028F4C0
S11321F0813099F08230A1F008958730A9F08830B9
S1132200B9F08430D1F4809180008F7D03C0809137
S113221080008F7780938000089584B58F7702C003
S113222084B58F7D84BD08958091B0008F7703C0FD
S11322308091B0008F7D8093B0000895CF93DF9399
S113224090E0FC01E457FF4F2491FC01E056FF4F5E
S11322508491882361F190E0880F991FFC01E25476
S1132260FF4FC591D491FC01EC54FF4FA591B4915B
S1132270611109C09FB7F8948881209582238883CF
S1132280EC912E230BC0623061F49FB7F8948881DF
S1132290322F309583238883EC912E2B2C939FBF70
S11322A006C08FB7F894E8812E2B28838FBFDF9167
S11322B0CF9108951F93CF93DF93282F30E0F90136
S11322C0E858FF4F8491F901E457FF4FD491F90185
S11322D0E056FF4FC491CC23C1F0162F81110E9408
S11322E0F510EC2FF0E0EE0FFF1FEC54FF4FA5911B
S11322F0B4919FB7F894111104C08C91D095D82350
S113230002C0EC91DE2BDC939FBFDF91CF911F9134
S11323100895DC01ED91FC910190F081E02D099488
S1132320FC011082628341830895CF93C62F69E232
S113233070E080E693E00E947F17C0686C2F70E025
S113234080E693E00E94891180E693E00E94FE17E4
S113235041E050E069E270E080E693E00E94FB1700
S113236080E693E00E94DB16CF910895CF93DF932C
S1132370C62F69E270E080E693E00E947F17C06890
S11323806C2F70E080E693E00E94891180E693E070
S11323900E94FE1742E050E069E270E080E693E0BC
S11323A00E94FB1780E693E00E94DB16EC0180E6B6
S11323B093E00E94DB1620E030E0382FCE01822B20
S11323C0932BDF91CF910895CF93DF93C62FD22F14
S11323D069E270E080E693E00E947F17C0686C2F8A
S11323E070E080E693E00E9489116D2F80E693E00F
S11323F00E942C1780E693E0DF91CF910C94FE1796
S1132400CF93DF93EC0121E030E040E050E060E066
S11324100E94E41163E070E080E090E00E947E108E
S113242023E030E040E050E060E0CE01DF91CF9166
S11324300C94E4111F93CF93DF93EC01162F888142
S1132440811103C0CE010E943212212F30E040E0FE
S113245050E06FE0CE010E94E4111983DF91CF9127
S11324601F910895CF93DF93EC0180E693E00E94DF
S11324706B1762E1CE010E949511843411F0803112
S113248079F481E088836A81CE010E9454126981C3
S1132490CE010E941A12CE010E94001281E001C0F6
S11324A080E0DF91CF9108951F93CF93DF93EC01E8
S11324B0162F8881811103C0CE010E943212212F70
S11324C030E040E050E061E0CE010E94E4111A8364
S11324D0DF91CF911F910895AF92BF92CF92DF9277
S11324E0EF92FF920F931F93CF93DF93EC015B0165
S11324F06A0179018881811103C0CE010E943212E0
S113250064E1CE010E94B611F8019183808366E1F3
S1132510CE010E94B611F5019183808368E1CE015A
S11325200E94B611F601918380836AE1CE010E9474
S1132530B611F701918380838A81853DF9F048F4CF
S1132540882309F1803C79F56AE970E080E090E045
S11325501EC0863F71F08F3F39F08B3E21F562E358
S113256070E080E090E013C063E070E080E090E011
S11325700EC068E170E080E090E009C065E670E0BC
S113258080E090E004C06CEB72E080E090E0DF91CA
S1132590CF911F910F91FF90EF90DF90CF90BF905C
S11325A0AF900C947E10DF91CF911F910F91FF900B
S11325B0EF90DF90CF90BF90AF900895982F9295B1
S11325C09F702AEF929F800D1124089580E693E076
S11325D00C946B171F93CF93DF93EC016FE670E0BD
S11325E080E693E00E947F1760E080E693E00E941B
S11325F02C1760E080E693E00E942C1729811AE0F2
S1132600822F612F0E94081B682F660F860F880F88
S1132610682F620F80E693E00E942C172A81822F94
S1132620612F0E94081B682F660F860F880F682F82
S1132630620F80E693E00E942C176B81686070E063
S113264080E693E00E9489112C81822F612F0E94E1
S1132650081B682F660F860F880F682F620F80E6AD
S113266093E00E942C172D81822F612F0E94081B5A
S1132670682F660F860F880F682F620F80E693E03D
S11326800E942C172E812E51822F612F0E94081B2D
S1132690682F660F680F660F620F80E693E00E9452
S11326A02C1780E693E00E94FE176FE670E080E648
S11326B093E00E947F1760E080E693E00E942C176D
S11326C02881822F612F0E94081B682F660F860FB6
S11326D0880F280F2068622F70E080E693E00E9444
S11326E0891180E693E0DF91CF911F910C94FE173E
S11326F0FF920F931F93CF93DF93C82FF62E072FCC
S1132700142F6FE670E080E693E00E947F176C2F31
S113271080E693E00E942C17CF2DD02FCE01810F9D
S1132720911D8C01C017D10731F0699180E693E0C7
S11327300E942C17F7CF80E693E0DF91CF911F9191
S11327400F91FF900C94FE17CF93DF93EC016FE68B
S113275070E080E693E00E947F1760E080E693E0FB
S11327600E942C1780E693E00E94FE1781113EC060
S113277047E050E06FE670E080E693E00E94FB17CC
S113278080E693E00E94DB168F770E94DE12888336
S113279080E693E00E94DB160E94DE12898380E6C5
S11327A093E00E94DB168F7B0E94DE128A8380E610
S11327B093E00E94DB16877C8B8380E693E00E9483
S11327C0DB160E94DE128C8380E693E00E94DB1607
S11327D08F7D0E94DE128D8380E693E00E94DB16DB
S11327E00E94DE12825E8E8381E001C080E0DF9170
S11327F0CF910895FF920F931F93CF93DF93C82F28
S1132800F62E072F142F6FE670E080E693E00E9407
S11328107F176C2F80E693E00E942C1780E693E0EC
S11328200E94FE17412F6FE680E693E00E94F8179E
S1132830CF2DD02FCE01810F911D8C01C017D10750
S113284031F080E693E00E94DB168993F7CFDF91A5
S1132850CF911F910F91FF900895CF92DF92EF9245
S1132860FF921F93CF93DF93CDB7DEB728970FB6B0
S1132870F894DEBF0FBECDBF69017A01162F117027
S113288087E0189F802D112441E0BE01685F7F4FCF
S1132890835F0E94FA13AE014F5F5F4FC701B60119
S11328A00E9426156FE670E080E693E00E947F1791
S11328B087E0189FB0011124665F7F4F80E693E0A4
S11328C00E94891129811AE0822F612F0E94081B1E
S11328D0682F660F860F880F682F620F80E693E0DB
S11328E00E942C172A81822F612F0E94081B682FB7
S11328F0660F860F880F682F620F80E693E00E94B0
S11329002C172B81822F612F0E94081B682F660FC2
S1132910860F880F682F620F80E693E00E942C17C1
S11329208885887F6C8170E0680F711D80E693E074
S11329300E9489112D81822F612F0E94081B682F0C
S1132940660F860F880F682F620F80E693E00E945F
S11329502C172E81822F612F0E94081B682F660F6F
S1132960860F880F682F620F80E693E00E942C1771
S113297080E693E00E94FE1728960FB6F894DEBF17
S11329800FBECDBFDF91CF911F91FF90EF90DF90ED
S1132990CF900895EF92FF920F931F93CF93DF93FD
S11329A000D0CDB7DEB7042F162F117041E0BE0161
S11329B06F5F7F4F87E00E94FA13E12EF12C0830FD
S11329C040F567E0169F102D1124135F41E0BE010E
S11329D06E5F7F4F812F0E94FA134A81842F87787C
S11329E090E1099FA0011124482B4A8341E0BE01D4
S11329F06E5F7F4F812F0E94781384E0E80EF11CF4
S1132A0081E090E001C0880FEA94EAF79981892B6C
S1132A100CC094E0E90EF11C81E090E001C0880F45
S1132A20EA94EAF7809599818923898341E0BE017C
S1132A306F5F7F4F87E00E9478130F900F90DF91B4
S1132A40CF911F910F91FF90EF9008956F927F9215
S1132A508F929F92AF92BF92CF92DF92EF92FF92AA
S1132A600F931F93CF93DF936B017C01EA018CE3F7
S1132A70882E912CA12CB12CC701B601A50194017B
S1132A800E943C1B6883CA01B901A50194010E94FC
S1132A903C1B6983C701B60120E13EE040E050E001
S1132AA00E943C1BCA01B90128E130E040E050E03B
S1132AB00E943C1B6A83C701B60120E831E541E06E
S1132AC050E00E943C1B69017A01CA01B9016C5FA4
S1132AD07F4F8F4F9F4F27E030E040E050E00E944F
S1132AE03C1B6F5F6B83812C912C540140E094E676
S1132AF0692E712C00E911E0242F30E02E54384F58
S1132B00F901E370FF27309789F4C901B3010E94EA
S1132B10281B892B31F4C901B8010E94281B892B79
S1132B2029F48EE691E0A0E0B0E004C08DE691E0E7
S1132B30A0E0B0E0880E991EAA1EBB1ED501C401F8
S1132B40AA27BB27C816D906EA06FB0610F04F5F72
S1132B50D3CF4E83309799F4C90164E670E00E94A4
S1132B60281B892B39F4C90160E971E00E94281BF4
S1132B70892B29F48EE691E0A0E0B0E004C08DE654
S1132B8091E0A0E0B0E0881A990AAA0ABB0AC81822
S1132B90D908EA08FB08C90164E670E00E94281B12
S1132BA08C01C90160E971E00E94281BACE3B2E02A
S1132BB020E0213041F4309751F40115110529F436
S1132BC0009729F402C04C9103C04DE101C04CE1CF
S1132BD050E060E070E0C416D506E606F70640F063
S1132BE0C41AD50AE60AF70A2F5F11962C3009F7A2
S1132BF02F5F2D83C394CC82DF91CF911F910F91CE
S1132C00FF90EF90DF90CF90BF90AF909F908F9008
S1132C107F906F9008954F925F926F927F928F9200
S1132C209F92AF92BF92CF92DF92EF92FF920F9357
S1132C301F93CF93DF93FC011681A12FB0E020E80E
S1132C4033E341EE51E00E94731B4B015C01C2EB84
S1132C50D7E09D0104E610E080E9E82EFF24F39418
S1132C60CE01825B974082179307D4F4CE01837020
S1132C709927892B99F4CE01B8010E94281B892B2E
S1132C8031F4CE01B7010E94281B892B39F480E866
S1132C90880E81E5981E81E0A81EB11C2196E0CF24
S1132CA04580512C2E54384FC90164E670E00E94CF
S1132CB0281B7C01C90160E971E00E94281B6C019A
S1132CC00CE312E0C1E0D0E03901A3E06A227724EA
S1132CD0C415D50534F5C230D10589F461147104E5
S1132CE071F4E114F10419F4C114D10441F4B0E80D
S1132CF08B0EBBE39B1EB6E2AB1EB11C0EC0D8010B
S1132D008C91A82FB0E020E831E541E050E00E942A
S1132D10731B860E971EA81EB91E21960F5F1F4FA8
S1132D20D7CF4181228130E0A0E1BEE00E94641B44
S1132D306B017C01242F30E0ACE3B0E00E94641B03
S1132D40DC01CB018C0D9D1DAE1DBF1D20816C01CE
S1132D507D01C20ED11CE11CF11CA481B0E01197CD
S1132D6020E831E541E050E00E947E1BDC01CB010C
S1132D708C0D9D1DAE1DBF1DBC01CD01680D791DBF
S1132D808A1D9B1DDF91CF911F910F91FF90EF90B2
S1132D90DF90CF90BF90AF909F908F907F906F9077
S1132DA05F904F9008958091900390E0209191035B
S1132DB0821B910908959091910380919003981733
S1132DC050F4E92FF0E0EE56FC4F208130E09F5F95
S1132DD09093910302C02FEF3FEFC9010895E09152
S1132DE0910380919003E81730F4F0E0EE56FC4F25
S1132DF0808190E008958FEF9FEF08950895CF921A
S1132E00DF92EF92FF920F931F93CF93DF937C0196
S1132E10CB018A0120916C03222389F0EB016B0121
S1132E20C40ED51ECC15DD0569F06991D701ED916D
S1132E30FC910190F081E02DC7010995F3CF642F37
S1132E400E94B219C801DF91CF911F910F91FF9099
S1132E50EF90DF90CF900895CF93DF931F92CDB77B
S1132E60DEB7698320916C032223D1F020916D0396
S1132E70203240F021E030E0FC013383228380E003
S1132E8090E015C080916E03E82FF0E0E159FC4F0B
S1132E90998190838F5F80936E0380936D0305C047
S1132EA061E0CE0101960E94B21981E090E00F909A
S1132EB0DF91CF910895FC011382128288EE93E092
S1132EC0A0E0B0E084839583A683B7838CE492E08A
S1132ED0918380830895109291031092900310922D
S1132EE06E0310926D030C94F61881E080936C03CA
S1132EF060938F0310926E0310926D0308950C94E7
S1132F0075170F93062F21E040916D036FE673E070
S1132F1080918F030E945C1910926E0310926D03CE
S1132F2010926C030F9108954F925F926F927F926B
S1132F30AF92BF92CF92EF92FF920F931F93CF93D2
S1132F40DF935C01F62ED42F28013901EE2021F104
S1132F500E947517CE2DC43008F0C3E0C150C0F0F4
S1132F6028E0C29FC0011124A301920104C0569518
S1132F704795379527958A95D2F7CA01B901D501A6
S1132F80ED91FC910190F081E02DC5010995E6CF0A
S1132F9060E0C5010E9481174D2FD13208F040E254
S1132FA02C2D62E973E08F2D0E9414191092910365
S1132FB080939003DF91CF911F910F91FF90EF9039
S1132FC0CF90BF90AF907F906F905F904F90089597
S1132FD0CF92EF920F931F93C22EE12C00E010E0EA
S1132FE098010E9494171F910F91EF90CF9008952C
S1132FF021E00C94E81721E00C94E81761E00C94AC
S1133000811780E693E00C945B17FC0160834130E8
S113301081E0580718F4168288E009C0413058400E
S113302018F4168280E103C081E0868380E2858300
S11330300895CF93DF93EC0180E693E00E946B1731
S113304019821A821B821C8288E48093B800DF9163
S1133050CF9108950F931F93CF93DF93EC010E94B8
S1133060591009811A812B813C81DC01CB01801B21
S1133070910BA20BB30B89389341A105B10558F408
S1133080688180E693E00E94751780E693E00E94D1
S1133090FE178111E4CFDF91CF911F910F91089515
S11330A00F931F93CF93DF93EC01162F072F6881A3
S11330B080E693E00E9475178E81882329F0602FA3
S11330C080E693E00E942C17612F80E693E0DF9165
S11330D0CF911F910F910C942C17CF92DF92EF9206
S11330E0FF921F93CF93DF93EC016B017A01122FB0
S11330F00E942A18B601CE010E945018412F50E0B8
S1133100B70180E693E00E94FF1680E693E00E94F8
S1133110FE17182F0E94591069837A838B839C832E
S1133120812F90E0DF91CF911F91FF90EF90DF907E
S1133130CF900895CF93DF931F92CDB7DEB7498325
S113314021E0AE014F5F5F4F0E946D180F90DF9139
S1133150CF910895CF92DF92EF92FF920F931F9336
S1133160CF93DF93EC016B01F42EE52E122F0E9416
S11331702A18B601CE010E94501880E693E00E94FE
S1133180FE17811116C0412F688180E693E00E94EA
S1133190F817C82FDF2D0F2D1E2D802F8D1B8C1798
S11331A050F480E693E00E94DB16F80181938F01CE
S11331B0F4CF80E001C08C2FDF91CF911F910F914C
S11331C0FF90EF90DF90CF900895CF93DF931F92FD
S11331D0CDB7DEB721E0AE014F5F5F4F0E94AA1862
S11331E089810F90DF91CF910895089510921F0463
S11331F081E080931D0410921C0461E082E10E942E
S11332005A1161E083E10E945A11E9EBF0E08081F8
S11332108E7F808380818D7F808380E28093B8005D
S113322085E48093BC000895413208F043C0909136
S11332301F049111FCCF91E090931F0420931D046F
S11332402FEF2093B2031092F703240F2093F60379
S113325090931E0490911E04880F892B80931E0462
S113326080911C04813061F410921C0480911E042E
S11332708093BB008091BC0083FDF8CF85EC01C036
S113328085EE8093BC0080911F048130E1F380912E
S1133290F703841710F44091F703A8EFB3E0962FD7
S11332A0FB018E2F891B841718F48D918193F9CF1C
S11332B0842F089580E008950F93413208F04AC0A6
S11332C090911F049111FCCF32E030931F040093BE
S11332D01D043FEF3093B2031092F7034093F603BB
S11332E0562FA8EFB3E0FB013E2F351B341718F41B
S11332F031913D93F9CF10921E0430911E04880F32
S1133300832B80931E0480911C04813061F41092FD
S11333101C0480911E048093BB008091BC0083FD3B
S1133320F8CF85EC01C085EE8093BC00222321F008
S113333080911F048230D1F38091B2038F3F79F0E2
S11333408091B203803241F08091B203803331F036
S113335094E005C091E003C092E001C093E0892F9E
S11333600F910895613298F420911F04243089F458
S11333706093D403282FA6EDB3E0FC018E2F821BAB
S1133380861718F481918D93F9CF80E0089581E038
S1133390089582E0089585ED8093BC008091BC007F
S11333A084FDFCCF10921F04089585EC8093BC002B
S11333B010921F0408951F920F920FB60F921124BA
S11333C02F933F934F935F936F937F938F939F9329
S11333D0AF93BF93EF93FF938091B900887F8036BA
S11333E009F49EC078F5883209F45DC090F4803108
S11333F009F456C038F4882309F4F5C0883009F478
S11334004FC0F5C0883109F44EC0803209F45FC062
S1133410EEC0803409F46AC058F4803309F457C00C
S1133420883309F0E4C08093B2030E94D519DFC049
S1133430803509F44FC0883509F45DC0883409F03B
S1133440D6C0D3C0883909F4C4C0A8F4883709F4B5
S113345067C038F4883609F463C0803709F460C063
S1133460C6C0883809F4B5C0803909F45FC0803813
S113347009F0BDC05BC0803B09F483C038F4803AD6
S113348009F466C0883A09F47CC0B1C0803C09F4F0
S1133490A4C0883C09F4A1C0883B09F487C0A7C034
S11334A080911E0410C09091F7038091F603981741
S11334B070F5E091F70381E08E0F8093F703F0E05D
S11334C0E850FC4F80818093BB0085EC83C08093DF
S11334D0B2038BC0E091F70381E08E0F8093F70372
S11334E08091BB00F0E0E850FC4F80839091F7039B
S11334F08091F6036BC0E091F70381E08E0F809317
S1133500F7038091BB00F0E0E850FC4F808380918A
S11335101D0481116AC081E080931C0484EA5EC0AA
S113352083E080931F041092B303CFCF8091B30341
S1133530803208F04EC0E091B30381E08E0F809397
S1133540B3038091BB00F0E0EC54FC4F8083BDCF0B
S11335500E94D5198091B303803230F4E091B30313
S1133560F0E0EC54FC4F10826091B30370E0E09102
S11335701804F091190484EB93E009951092B303B5
S113358036C084E080931F041092D5031092D403B4
S1133590E0911A04F0911B0409958091D4038111E0
S11335A005C081E08093D4031092D603E091D50343
S11335B081E08E0F8093D503F0E0EA52FC4F8081C6
S11335C08093BB009091D5038091D403981708F49D
S11335D07CCF85E88093BC000AC085EC8093BC0056
S11335E010921F0404C01092B2030E94CB19FF91E1
S11335F0EF91BF91AF919F918F917F916F915F9167
S11336004F913F912F910F900FBE0F901F901895DF
S1133610991B79E004C0991F961708F0961B881F20
S11336207A95C9F780950895AA1BBB1B51E107C081
S1133630AA1FBB1FA617B70710F0A61BB70B881F3E
S1133640991F5A95A9F780959095BC01CD010895CD
S113365097FB072E16F4009407D077FD09D00E943B
S1133660141B07FC05D03EF4909581959F4F089557
S1133670709561957F4F0895A1E21A2EAA1BBB1B7A
S1133680FD010DC0AA1FBB1FEE1FFF1FA217B3072A
S1133690E407F50720F0A21BB30BE40BF50B661F40
S11336A0771F881F991F1A9469F760957095809504
S11336B090959B01AC01BD01CF010895EE0FFF1F52
S11336C00590F491E02D0994A29FB001B39FC0012D
S11336D0A39F700D811D1124911DB29F700D811D3A
S11336E01124911D08950E94641BA59F900DB49F01
S11336F0900DA49F800D911D11240895B7FF0C9483
S1133700731B0E94731B821B930B08950F931F93CB
S1133710CF93DF938230910510F482E090E0E09142
S11337202204F091230420E030E0A0E0B0E03097E0
S113373019F1408151810281138148175907C8F05A
S11337408417950769F4109731F012960C93129729
S113375013961C9327C0009322041093230422C0C1
S11337602115310519F04217530718F49A01BD01C8
S1133770EF01DF01F801DBCF21153105F9F0281B3A
S1133780390B2430310580F48A819B8161157105E0
S113379021F0FB019383828304C0909323048093DC
S11337A02204FE01329644C0FE01E20FF31F81930E
S11337B0919322503109398328833AC020912004FF
S11337C030912104232B41F4209102013091030113
S11337D030932104209320042091000130910101B1
S11337E02115310541F42DB73EB7409104015091A4
S11337F00501241B350BE0912004F0912104E2170C
S1133800F307A0F42E1B3F0B2817390778F0AC01FF
S11338104E5F5F4F2417350748F04E0F5F1F5093DC
S11338202104409320048193919302C0E0E0F0E0EE
S1133830CF01DF91CF911F910F910895CF93DF9323
S1133840009709F481C0FC01329713821282A0917F
S11338502204B0912304109781F420813181820FD6
S1133860931F20912004309121042817390751F522
S1133870F0932104E093200467C0ED0120E030E0E0
S1133880CE17DF0740F44A815B819E014115510543
S1133890F1F0EA01F5CFD383C28340815181840FD3
S11338A0951FC817D90759F488819981840F951FEA
S11338B00296918380838A819B81938382832115DD
S11338C0310529F4F0932304E09322043DC0E90177
S11338D0FB83EA8349915991C40FD51FEC17FD0767
S11338E061F480819181840F951F0296E901998387
S11338F08883828193819B838A83E0E0F0E012963F
S11339008D919C911397009719F0FD01DC01F7CF7D
S11339108D919C9111979D012E5F3F4F820F931FB4
S113392020912004309121042817390769F4309735
S113393029F4109223041092220402C013821282EA
S1133940B0932104A0932004DF91CF910895FB014B
S1133950DC014150504048F001900D920020C9F71D
S113396001C01D9241505040E0F70895F894FFCFF4
S1133970000024042000820F820F54534C32353946
S11339803100526573756D696E672E2000416C615C
S1133990726D205472696767657265642120005BEB
S11339A0005D20004D656D6F727920436C65617216
S11339B065642E2000476F696E6720746F20536C16
S11339C06565702E2000456E746572696E672063AC
S11339D079636C656420736C6565702E2000484FB4
S11339E04D4520312E30204669726D776172652015
S11339F00053616D706C696E672E20004C75783AC7
S1133A0020005265643A2000477265656E00426C7E
S1133A1075653A2000436C6561723A20004761691C
S1133A206E3A200054696D653A200044756D7069E2
S1133A306E67204D656D6F72792E2000536574207A
S1133A40696E74657276616C3A2000000048430028
S1133A500096430000C8430000FA430000164400E7
S1133A600000009300EC0092006703940003000040
S1133A7000204E03C07E1318F602C0964118F601CA
S1133A80C07C3D18F600C07C3D000000000000D260
S1133A900C3C0E750C8F0C810C190D0D0A006E6117
S1133AA06E00696E66006F7666002E001F1C1F1E76
S1133AB01F1E1F1F1E1F1E1F000000002C17FF16B5
S10B3AC0D316DB16EF16FE1607
S9030000FC
